:020000040000FA
:060800005FEF25F012007D
:020806001200DE
:0608080016EF04F01200DF
:0608180012EF06F01200D1
:02081E000100D7
:0C082000FD4A0000C40000002E00000093
:04082C00DACFE4FF3C
:10083000E2CFDAFFE9CFE4FFEACFE4FFF6CFE4FF4F
:10084000F7CFE4FFF5CFE4FFF3CFE4FFF4CFE4FF0D
:10085000FACFE4FF00EE00F0140EE80403E3EECF5D
:10086000E4FFFBD700EE14F0080EE80403E3EECF3C
:10087000E4FFFBD7E652F2A434D1D59EFC0ED76E2E
:100880003F0ED66ED58E0101072B000E0823010105
:100890008F2B000E9023912392230101932B000EA6
:1008A0009423952396230101972B000E98239923D7
:1008B0009A2301019B2B000E9C239D239E23010163
:1008C000092B000E0A230101F52B000EF623320E30
:1008D0000001815D02E20001812B030E010100197C
:1008E00001E1015101E187D0020E0101001901E18E
:1008F000015144E0010E0101001901E1015107E03D
:100900000101005101E1015101E0E5D0E9D0805041
:10091000100B100A01E0010E010808E10101026B51
:10092000036B0101002B000E012327D00101022BD4
:10093000000E03230101F40ED8800255010E035569
:100940001CE20101026B036B0101010E0D1901E1B3
:100950000E5106E00101070E0D1901E10E510DE1E6
:100960000101AAB1BDD00101AAB3BAD00101AAB553
:10097000B7D00101AAB7B4D0897EB2D080A805D083
:1009800001010007000E015B35D00101022B000EB2
:1009900003230101320ED8800255000E03552AE2CE
:1009A000000EE66EE66A000EE66EE66A0DEC0AF0F0
:1009B000E552E552E552E552899E899C8A908A98D3
:1009C000020E01010D1901E10E510BE001010D5163
:1009D00001E10E5101E00AD0898E0101096B0A6B19
:1009E00005D0040E01010D6F0E6B00D00101002B2C
:1009F000000E012375D080A841D0040E01010D190D
:100A000001E10E5135E0070E01010D1901E10E5112
:100A10002AE0050E01010D1901E10E511FE0030E40
:100A200001010D1901E10E5114E0010E01010D1932
:100A300001E10E5109E001010D5101E10E5101E00A
:100A400018D00101AA8315D0020E01010D6F0E6BA3
:100A500010D0010E01010D6F0E6B0BD0060E0101BF
:100A60000D6F0E6B06D0080E01010D6F0E6B01D0DD
:100A7000FF000101002B000E01232CD0050E010107
:100A80000D1901E10E5116E001010D5101E10E5168
:100A900001E020D00101D00ED8800955070E0A557B
:100AA00008E2899C050E01010D6F0E6B0101026BBE
:100AB000036B10D00101022B000E03230101640E11
:100AC000D8800255000E035504E20101026B036B4E
:100AD000897E00D005D0010E0101006F016B00D0AE
:100AE000F2949EA673D00001816B0001826B00011D
:100AF00080510F0A64E0010A5EE0030A44E0010A43
:100B000039E0070A2EE0080A23E0010A0AE0030A96
:100B100001E058D083C0C9FF0001846B0001802B25
:100B200054D0C5AC03D080C082F011D000018451F4
:100B3000842BEA6A860FE96E000EEA22EF50C96E36
:100B4000000185510001845D02E10001802B3DD050
:100B5000C5AC03D080C082F003D0C5840001806B97
:100B600034D0010E00018311C96E0001846B0001B5
:100B7000802B2BD0C5AC03D080C082F003D0C586BB
:100B80000001802B22D000018451842BEA6A860F59
:100B9000E96E000EEA22C9CFEFFF00018551000186
:100BA000845D04E2C59A0001800703D0C58A000174
:100BB000802BC5880AD0C5840001802B06D0000197
:100BC000806B03D00001806B00D09E96A1A606D05A
:100BD000A196400E000180110001826FE55200EEE7
:100BE0001BF0080EE80403E3E5CFEDFFFBD700EEB2
:100BF00013F0140EE80403E3E5CFEDFFFBD7E5CFD8
:100C0000FAFFE5CFF4FFE5CFF3FFE5CFF5FFE5CF42
:100C1000F7FFE5CFF6FFE5CFEAFFE5CFE9FFE5CF48
:100C2000DAFF1100D8CFE4FFE0CFE4FFE46EDACFC3
:100C3000E4FFE2CFDAFFE9CFE4FFEACFE4FFE652D8
:100C40009EAC2CD19E9CC4CF06F1C3CF05F101010F
:100C50000451EA6AA00FE96E010EEA22EF5005087E
:100C600001E09BD001010C3504E20B510308000E9A
:100C70000C5501E391D005C105F106C106F1010152
:100C8000FF0ED8800557030E0657010E0101D890BC
:100C900005370637E806FBE10101900E055D010E00
:100CA000065905E20101900E056F010E066F900EC8
:100CB0000101055F010E0101065B0101FF0ED880F5
:100CC0000555030E065504E201010569030E066F82
:100CD00001010451E96EEA6AD890E936EA360F0E4E
:100CE000E926010EEA22EE5001010527EE5001012E
:100CF000062305C11CF006C11DF0010E0F0B05E017
:100D0000D8901D321C32E806FBE101010451E96E66
:100D1000EA6AD890E936EA360F0EE926010EEA2291
:100D20001CC0EEFF1DC0EDFF01010B6B0C6B010140
:100D30000451090A2EE0010A29E00F0A24E0010A01
:100D40001FE0030A1AE0010A15E0070A10E0010A91
:100D50000BE0030A06E0010A01E01ED092908980B0
:100D60001BD09292898218D09294898415D0929641
:100D7000898612D0929A898A0FD093948A840CD053
:100D800093968A8609D093928A8206D093988A880D
:100D900003D093908A8000D02CD001010451E96ED9
:100DA000EA6AD890E936EA360F0EE926010EEA2201
:100DB000EE5001010527EE500101062305C11CF08C
:100DC00006C11DF0010E0F0B05E0D8901D321C323C
:100DD000E806FBE101010451E96EEA6AD890E936C0
:100DE000EA360F0EE926010EEA221CC0EEFF1DC0F6
:100DF000EDFF0A0E1C6E0101042B01010451D88085
:100E00001C5402E30101046B01010451EA6AA00FC2
:100E1000E96E010EEA22EF50050837E101010B2BC4
:100E2000000E0C2301010C3504E20B510308000EE7
:100E30000C552BE201010451090A25E0010A21E0C9
:100E40000F0A1DE0010A19E0030A15E0010A11E08A
:100E5000070A0DE0010A09E0030A05E0010A01E0C2
:100E600014D0928012D0928210D092840ED09286AA
:100E70000CD0928A0AD0938408D0938606D09382AD
:100E800004D0938802D0938000D001010451EA6A13
:100E9000C40FE96E000EEA22EF50C26E9EAA98D0EF
:100EA000ABA403D0AECFF9F193D0ABA203D0AB98F3
:100EB000AB888ED0AECFF9F10101010E0D1901E121
:100EC0000E5173E00101FA51080A66E00F0A5AE078
:100ED000010A4EE0030A42E0010A36E0070A2AE06E
:100EE000010A1EE0030A12E0010A01E05ED0520E80
:100EF0000101F95D03E10101010EFA6F560E0101D6
:100F0000F95D03E10101050EFA6F4FD0650E010195
:100F1000F95D02E1020E01D0000E0101FA6F45D029
:100F2000730E0101F95D02E1030E01D0000E010113
:100F3000FA6F3BD0650E0101F95D02E1040E01D0AC
:100F4000000E0101FA6F31D0740E0101F95D02E16A
:100F5000070E01D0000E0101FA6F27D0650E0101C6
:100F6000F95D02E1060E01D0000E0101FA6F1DD0FD
:100F7000720E0101F95D02E1070E01D0000E0101C0
:100F8000FA6F13D00D0E0101F95D02E1080E01D0D8
:100F9000000E0101FA6F09D00A0E0101F95D02E1AC
:100FA000FF0002D00101FA6B00D00101F751EA6A9B
:100FB000D40FE96E010EEA22F9C1EFFF1F0E1C6E7D
:100FC0000101F72B0101F7511C5C02E20101F76BF3
:100FD000E552E5CFEAFFE5CFE9FFE5CFDAFFE550DF
:100FE000E5CFE0FFE5CFD8FF1000D9CFE6FFE1CF96
:100FF000D9FF030EE126F00ED36EC00E9B6E0101E9
:10100000FA6B01010D6B0E6B006B016B026B036BD6
:10101000010EDB6A020EDB6A010EDBCF14F0020E5A
:10102000DBCF15F0D890155004E61A0E145C000EB4
:1010300015581AE2010EDBCFE9FF020EDBCFEAFF03
:10104000D890E936EA36D890E936EA36270EE9260E
:10105000010EEA22EE6AEE6AEE6AEE6A010EDB2A01
:10106000020EDAE3DB2AD8D7010EDB6A020EDB6A56
:10107000010EDBCF14F0020EDBCF15F0D890155027
:1010800004E6040E145C000E15581AE2010EDBCFC4
:10109000E9FF020EDBCFEAFFD890E936EA36D890B6
:1010A000E936EA368F0EE926010EEA22EE6AEE6A8A
:1010B000EE6AEE6A010EDB2A020EDAE3DB2AD8D7EB
:1010C000010EDB6A020EDB6A010EDBCF14F0020EAA
:1010D000DBCF15F0D890155004E60A0E145C000E14
:1010E000155811E2010EDBCFE9FF020EDBCFEAFF5C
:1010F000A00EE926010EEA22010EEF6EDB2A020E97
:10110000E3E3DB2AE1D70101236B246B256B266B1C
:10111000046B0B6B0C6BAA6BAB6B096B0A6B076BED
:10112000086B896A3F0EDF6EDF50926E8A6A1F0E6F
:10113000DF6E0001D61DDF16E66A080EE66E1DECB6
:101140000DF0E552E5520101A86B0001CE1DDF163E
:10115000E66A090EE66E1DEC0DF0E552E55201015E
:10116000A96BDF50936E180E8B6E980E946E020E64
:10117000D56EFC0ED76E3F0ED66ED58EF294F28AE7
:10118000F184B00EB16EA292A192A092B1809D9214
:10119000010ECA6ECC68CB68CA849F6F000E256FA3
:1011A000266B236F246BE66EE66AE66EE66A9FD8CE
:1011B000E552E552E552E5529F9C9D8CBE0EC06EF5
:1011C000020EC16E01010451EA6AC40FE96E000EFD
:1011D000EA22EF50C26EE6EC17F05EEC20F0D09CF5
:1011E000D08EF28EF28C300E146E490E156E166A89
:1011F00014C0E6FFE66E16C0E6FF35EC18F0E552C7
:10120000E552E55222EC1AF042EC21F0010E010108
:10121000006F016B8050100B100A01E0010E0108F5
:10122000F9E001010D510E1103E1010E0D6F0E6B7E
:10123000898E030EE15C02E2E16AE552E16EE5525D
:10124000E7CFD9FF1200D1DEF40EE66E010EE66E96
:10125000BAD8E552E5520101096B0A6B7BEC18F034
:10126000000902E081EC18F0070E01010D1901E1FF
:101270000E513AE0050E0D1901E10E5130E0060E57
:101280000D1901E10E512BE0020E0D1901E10E5175
:101290001BE0030E0D1901E10E5116E0010E0D19B0
:1012A000DDE10E51DBE1CC51095DCD510A59D6E3A8
:1012B000096B0A6BAAA102D07BEC1AF00101AAA368
:1012C000CDD7D5EC1BF0CAD7EEEC24F0899E899CD3
:1012D0008A908A98010E01010D6F0E6BBFD795ECB5
:1012E0000EF013EC0FF0BAD71EEC10F0B7D7D9CF31
:1012F000E6FFE1CFD9FF040EE126FD0EDBCF14F0AF
:10130000FE0EDBCF15F0FF0ED8801454030E1554DB
:1013100007E2FD0EDB68030EF36EFE0EF3CFDBFF7C
:10132000FB0EDBCF14F0FC0EDBCF15F0FF0ED880E8
:101330001454030E155407E2FB0EDB68030EF36E24
:10134000FC0EF3CFDBFFFB0EDBCF14F0FC0EDBCF8C
:1013500015F0060ED89014361536E804FBE114C0DB
:10136000DEFF15C0DDFFFD0EDBCF14F0FE0EDBCF80
:1013700015F0060ED89014361536E804FBE1020E7F
:1013800014C0DBFF030E15C0DBFF010EDB50BE6E89
:10139000030EDB50BB6EDF50E840E8403F0B300BE4
:1013A0000C09BD6E020EDB40E8403F0B300B0C0910
:1013B000BA6E040EE15C02E2E16AE552E16EE552CA
:1013C000E7CFD9FF1200D9CFE6FFE1CFD9FF020E58
:1013D000E126F29A0101096B0A6BF28AF29A09C1BD
:1013E000DEFF0AC1DDFFF28ADECF14F0DDCF15F09B
:1013F000FD0EDBCF16F0FE0EDBCF17F01650145C9F
:1014000017501558EBE3020EE15C02E2E16AE55287
:10141000E16EE552E7CFD9FF1200D9CFE6FFE1CF69
:10142000D9FF0A0EE12623C114F024C115F0FD0EE8
:10143000DB50141811E1FE0EDB5015180DE125C12B
:1014400016F026C117F0FB0EDB50161805E1FC0E56
:10145000DB50171801E1E7D2000EE66EE66AE66E91
:10146000E66A45DFE552E552E552E5528B9A8B90EC
:101470008A9C8A9AA092A192B190B368050EB26E2E
:10148000B180080E00CFDBFFFD0EDBCF14F0FE0EA7
:10149000DBCF15F0153401E387D014500008000E9F
:1014A000155401E381D0010EF36E040EF3CFDBFF80
:1014B000060EDB6A080E086E096AFD0EDBCF0DF022
:1014C000FE0EDBCF0EF0FBEC22F006C0DEFF07C005
:1014D000DDFF0F01000ED8800055000E015501E31D
:1014E000F8D0DECF14F0DDCF15F015341EE2145025
:1014F0009008010E155419E2DECF16F0DDCF17F07B
:10150000900E165E010E175A16C008F017C009F0AB
:1015100004CF0DF005CF0EF00BEC25F00F010051BC
:101520000824146E0151092027D0DECF14F0DDCF3E
:1015300015F0900ED8801456010E15560051145C0B
:10154000015115581CE2DECF16F0DDCF17F0900EDA
:10155000D8801656010E175616C008F017C009F0AD
:1015600004CF0DF005CF0EF00BEC25F00F01085065
:10157000005D146E09500159080E14C0DBFF080EFF
:10158000DB50146E156ADECF16F0DDCF17F0155064
:101590001718E8AE02D0173404D01650145C175058
:1015A000155801E396D089D0FD0EDBCF14F0FE0E66
:1015B000DBCF15F00001800E151401E18FD0040E71
:1015C000DB6A010EF36E060EF3CFDBFFF80E086E3A
:1015D0000968FD0EDBCF0DF0FE0EDBCF0EF0FBEC4D
:1015E00022F006C0DEFF07C0DDFF0F01000ED8802D
:1015F0000055000E01556DE2DECF14F0DDCF15F081
:1016000015341EE214509008010E155419E2DECF75
:1016100016F0DDCF17F0900E165E010E175A16C0A9
:1016200008F017C009F004CF0DF005CF0EF00BEC59
:1016300025F00F0100510824146E0151092027D014
:10164000DECF14F0DDCF15F0900ED8801456010EC9
:1016500015560051145C015115581CE2DECF16F0EE
:10166000DDCF17F0900ED8801656010E175616C013
:1016700008F017C009F004CF0DF005CF0EF00BEC09
:1016800025F00F010850005D146E09500159080E35
:1016900014C0DBFF080EDB50146E156ADECF16F0A7
:1016A000DDCF17F015501718E8AE02D0173404D06C
:1016B0001650145C175015580CE2080EDB50146ECF
:1016C000156AD9CFE9FFDACFEAFFE850EE5E155090
:1016D000ED5A640EDE26000EDD220FD001019F516F
:1016E0000CE0010EF36E040EF3CFDBFF010EF36E80
:1016F000060EF3CFDBFFDE6ADD6A090E02CFDBFFE9
:10170000FB0EDBCF14F0FC0EDBCF15F0153401E33C
:1017100093D014500008000E155401E38DD0010E33
:10172000F36E050EF3CFDBFF070EDB6A080E086EC3
:10173000096AFB0EDBCF0DF0FC0EDBCF0EF0FBECED
:1017400022F0020E06C0DBFF030E07C0DBFF0F0115
:10175000000ED8800255000E035501E310D1020E91
:10176000DBCF14F0030EDBCF15F0153420E214505C
:101770009008010E15541BE2020EDBCF16F0030E8B
:10178000DBCF17F0900E165E010E175A16C008F048
:1017900017C009F004CF0DF005CF0EF00BEC25F0CB
:1017A0000F0102510824146E035109202BD0020EA0
:1017B000DBCF14F0030EDBCF15F0900ED88014565B
:1017C000010E15560251145C035115581EE2020E0B
:1017D000DBCF16F0030EDBCF17F0900ED880165635
:1017E000010E175616C008F017C009F004CF0DF00F
:1017F00005CF0EF00BEC25F00F010850025D146EC2
:1018000009500359090E14C0DBFF090EDB50146E9A
:10181000156A020EDBCF16F0030EDBCF17F0155062
:101820001718E8AE02D0173404D01650145C1750C5
:10183000155801E3A4D096D0FB0EDBCF14F0FC0EBC
:10184000DBCF15F00001800E151401E1A2D0050ECA
:10185000DB6A010EF36E070EF3CFDBFFF80E086EA6
:101860000968FB0EDBCF0DF0FC0EDBCF0EF0FBECBE
:1018700022F0020E06C0DBFF030E07C0DBFF0F01E4
:10188000000ED8800255000E035501E378D0020EF9
:10189000DBCF14F0030EDBCF15F0153420E214502B
:1018A0009008010E15541BE2020EDBCF16F0030E5A
:1018B000DBCF17F0900E165E010E175A16C008F017
:1018C00017C009F004CF0DF005CF0EF00BEC25F09A
:1018D0000F0102510824146E035109202BD0020E6F
:1018E000DBCF14F0030EDBCF15F0900ED88014562A
:1018F000010E15560251145C035115581EE2020EDA
:10190000DBCF16F0030EDBCF17F0900ED880165603
:10191000010E175616C008F017C009F004CF0DF0DD
:1019200005CF0EF00BEC25F00F010850025D146E90
:1019300009500359090E14C0DBFF090EDB50146E69
:10194000156A020EDBCF16F0030EDBCF17F0155031
:101950001718E8AE02D0173404D01650145C175094
:1019600015580DE2090EDB50146E156AD950020F9E
:10197000E96EDACFEAFF1450EE5E1550ED5AD950F9
:10198000020FE96EDACFEAFF640EEE26000EED22BA
:1019900011D001019F510EE0010EF36E050EF3CF41
:1019A000DBFF010EF36E070EF3CFDBFF020EDB6AE7
:1019B000030EDB6A0101010E9F6FFD0EDBCF23F1E9
:1019C000FE0EDBCF24F1FB0EDBCF25F1FC0EDBCFCF
:1019D00026F1A1A2FED7A192020EDBCFE6FF030EF5
:1019E000DBCFE6FFDECFE6FFDDCFE6FF80DCE552B2
:1019F000E552E552E552040EDB50E8B08B8AE8A0D0
:101A00008B9A060EDB50E8B08B80E8A08B90050E19
:101A1000DB50E8B08A8CE8A08A9C070EDB50E8B067
:101A20008A8AE8A08A9A0A0EE15C02E2E16AE5523B
:101A3000E16EE552E7CFD9FF1200D9CFE6FFE1CF43
:101A4000D9FFFE0EDB50090A5AE0010A50E00F0AE6
:101A500046E0010A3CE0030A32E0010A28E0070AF6
:101A60001EE0010A14E0030A0AE0010A4EE1FD0E3D
:101A7000DB50E8B08980E8B048D0899046D0FD0EB0
:101A8000DB50E8B08982E8B040D089923ED0FD0EAC
:101A9000DB50E8B08984E8B038D0899436D0FD0EA8
:101AA000DB50E8B08986E8B030D089962ED0FD0EA4
:101AB000DB50E8B0898AE8B028D0899A26D0FD0E9C
:101AC000DB50E8B08A84E8B020D08A941ED0FD0EA6
:101AD000DB50E8B08A86E8B018D08A9616D0FD0EA2
:101AE000DB50E8B08A82E8B010D08A920ED0FD0EAA
:101AF000DB50E8B08A88E8B008D08A9806D0FD0E9E
:101B0000DB50E8B08A80E8A08A90E552E7CFD9FFA1
:101B10001200D9CFE6FFE1CFD9FFE652DF6AFE0E11
:101B2000DB50090A35E0010A2EE00F0A28E0010A1D
:101B300022E0030A1CE0010A16E0070A10E0010A8D
:101B40000AE0030A04E0010A26E1895022D0895004
:101B5000020B20E01BD08950040B1CE017D08950E9
:101B6000080B18E013D08950200B14E00FD08A50D6
:101B7000040B10E00BD08A50080B0CE007D08A5001
:101B8000020B08E003D08A50100B04E0010E02D0D3
:101B90008A50010BDF6EDF50E552E552E7CFD9FFE7
:101BA0001200D9CFE6FFE1CFD9FFFE0EDB50030ACA
:101BB0001EE0010A14E0030A0AE0010A1EE1FD0E1C
:101BC000DB50E8B0898EE8B018D0899E16D0FD0EA3
:101BD000DB50E8B0898CE8B010D0899C0ED0FD0EA7
:101BE000DB50E8B08A80E8B008D08A9006D0FD0EBD
:101BF000DB50E8B08A88E8A08A98E552E7CFD9FFA1
:101C00001200D9CFE6FFE1CFD9FFE652DF6AFE0E20
:101C1000DB50030A13E0010A0DE0030A06E0010AA3
:101C200012E18950800B08E003D08950400B04E09A
:101C3000010E02D08A50010BDF6E05D08A50100BC6
:101C400001E0010EDF6EDF50E552E552E7CFD9FF2C
:101C50001200D9CFE6FFE1CFD9FFF29AFE0EDB509A
:101C6000040DF3CFE9FFF4CFEAFF8F0EE926010E52
:101C7000EA22EE6AEE6AEE6AEE6AF28AE552E7CF8F
:101C8000D9FF1200D9CFE6FFE1CFD9FF040EE1263C
:101C9000F29AFE0EDB50040DF3CFE9FFF4CFEAFF1A
:101CA0008F0EE926010EEA22EECFDFFF010EEECF06
:101CB000DBFF020EEECFDBFF030EEECFDBFFF28A7F
:101CC000DECF06F0DECF07F0DECF08F0DDCF09F083
:101CD000DD52DD52040EE15C02E2E16AE552E16EA2
:101CE000E552E7CFD9FF1200B36AB26AB1801200A1
:101CF000D9CFE6FFE1CFD9FF020EE126B250DF6E69
:101D0000010EB3CFDBFFDECF14F0DDCF15F014C032
:101D1000F3FF15C0F4FF020EE15C02E2E16AE55256
:101D2000E16EE552E7CFD9FF1200E66AE66A39DFD5
:101D3000E552E552E66A010EE66E33DFE552E55202
:101D4000E66A020EE66E2DDFE552E552E66A030E04
:101D5000E66E27DFE552E552050E01010D6F0E6BB1
:101D60000101050E0D195EE10E515CE1320ED880C5
:101D70000F55010E105503E2010EE66E01D0E66A22
:101D8000E66A0FDFE552E5520101320ED8801155A7
:101D9000010E125503E2010EE66E02D0E66A010E54
:101DA000E66EFFDEE552E5520101FF0ED8801355C5
:101DB000010E145503E2010EE66E01D0E66A020E32
:101DC000E66EEFDEE552E5520101FF0ED8801555B3
:101DD000010E165503E2010EE66E01D0E66A030E0F
:101DE000E66EDFDEE552E5520101FF0ED8801755A1
:101DF000010E18550AE2010EE66E020EE66ED1DE05
:101E0000E552E552010EE66E07D0E66A020EE66E76
:101E1000C8DEE552E552E66A030EE66EC2DEE55222
:101E2000E5529ED71200E66AE66ABBDEE552E5524D
:101E3000E66A010EE66EB5DEE552E552E66A020E8E
:101E4000E66EAFDEE552E552E66A030EE66EA9DE07
:101E5000E552E552010EE66EE66AA3DEE552E55272
:101E6000320EE66EE66AE66EE66A0DEC0AF0E552C0
:101E7000E552E552E552E80EE66E030EE66EE3EC3F
:101E800009F0E552E552E66AE66A8BDEE552E55274
:101E9000000EE66EE66AE66EE66A0DEC0AF0E552C2
:101EA000E552E552E552C80EE66EE66AE3EC09F04B
:101EB000E552E552010EE66EE66E73DEE552E5523E
:101EC000CE0EE66EE668E66EE6680DEC0AF0E552C8
:101ED000E552E552E552E80EE66E030EE66EE3ECDF
:101EE00009F0E552E552E66A010EE66E5ADEE55269
:101EF000E552000EE66EE66AE66EE66A0DEC0AF062
:101F0000E552E552E552E552C80EE66EE66AE3ECAC
:101F100009F0E552E552010EE66E020EE66E41DE74
:101F2000E552E552320EE66EE66ACE0EE66EE668E1
:101F30000DEC0AF0E552E552E552E552E80EE66E88
:101F4000030EE66EE3EC09F0E552E552E66A020E96
:101F5000E66E27DEE552E552000EE66EE66AE66EB4
:101F6000E66A0DEC0AF0E552E552E552E552C80E7C
:101F7000E66EE66AE3EC09F0E552E552010EE66E24
:101F8000030EE66E0EDEE552E552CE0EE66EE66814
:101F9000320EE66EE66A0DEC0AF0E552E552E552C5
:101FA000E552E80EE66E030EE66EE3EC09F0E5524C
:101FB000E552E66A030EE66EF4DDE552E552000EE8
:101FC000E66EE66AE66EE66A0DEC0AF0E552E55268
:101FD000E552E552320EE66EE66A000EE66EE66AFD
:101FE0000DEC0AF0E552E552E552E552E80EE66ED8
:101FF000030EE66EE3EC09F0E552E552000EE66EE4
:10200000E66A320EE66EE66A0DEC0AF0E552E5523B
:10201000E552E552E80EE66E030EE66EE3EC09F0DB
:10202000E552E552000EE66EE66AE66EE66A0DECF3
:102030000AF0E552E552E552E55212007BEC18F049
:10204000000902E081EC18F00101080E0D1901E011
:1020500080D00E5101E07DD0010EE66EE66AA1DD72
:10206000E552E552320EE66EE66AE66EE66A0DEC81
:102070000AF0E552E552E552E552D00EE66E070E43
:10208000E66EE3EC09F0E552E552640EE66EE66AB0
:10209000E66EE66A0DEC0AF0E552E552E552E552CD
:1020A000E80EE66E030EE66EE3EC09F0E552E5524B
:1020B000010EE66E030EE66E74DDE552E552000E8B
:1020C000E66EE66AE66EE66A0DEC0AF0E552E55267
:1020D000E552E552F40EE66E010EE66EE3EC09F011
:1020E000E552E552CE0EE66EE668E66EE6680DEC69
:1020F0000AF0E552E552E552E552D00EE66E070EC3
:10210000E66EE3EC09F0E552E5529C0EE66EE668F9
:10211000E66EE6680DEC0AF0E552E552E552E5524E
:10212000E80EE66E030EE66EE3EC09F0E552E552CA
:10213000E66A030EE66E35DDE552E552000EE66E08
:10214000E66AE66EE66A0DEC0AF0E552E552E55203
:10215000E552070E01010D6F0E6B70D7D9CFE6FF68
:10216000E1CFD9FFFD0EDBCFCEF1FE0EDBCFCFF1FD
:102170000101D06BD16B6F0ECE5F000ECF5BD05BD9
:10218000D15B700E0B6E170E0C6E0D6A0E6ACEC10F
:1021900006F0CFC107F0D0C108F0D1C109F02DEC95
:1021A00024F002C0CEF103C0CFF104C0D0F105C0CD
:1021B000D1F18A0E0B6E0C0E0C6E0D6A0E6A02C007
:1021C00006F003C007F004C008F005C009F0C7EC32
:1021D00022F006C0CEF107C0CFF108C0D0F109C08F
:1021E000D1F1640E0101CE5F000ECF5BD05BD15BFD
:1021F000D880D151FF0A08E6F60ECE5DFF0ECF590A
:10220000FF0ED059FF0ED1590BE20001190EEE6FEF
:10221000FC0EEF6FF069F16907C1D2F108C1D3F18B
:102220000101D251075D146E0851D355156EE80EA9
:10223000145C030E155801E2B0D007C1D2F108C1F9
:10224000D3F1190E0001EE1911E1FC0EEF190EE1A8
:10225000E868F0190BE1E868F11908E1CEC1EEF089
:10226000CFC1EFF0D0C1F0F0D1C1F1F0EE0EE96EC8
:10227000000EEA6E030EEB500101D119E8AE02D058
:10228000D13508D0CE51EE5CCF51EE58D051EE583A
:10229000D151EE582DE2EE0EE96E000EEA6EEE50D0
:1022A000CE5D146EEE50CF59156EEE50D059166EAD
:1022B000EE50D159176EE834000E171809E6D88091
:1022C000010E1454000E1554000E1654000E17542F
:1022D0003DE2EEC0CEF1EFC0CFF1F0C0D0F1F1C0E1
:1022E000D1F1020ECE27000ECF23D023D1232ED042
:1022F000CE0EE96E010EEA6EEE500001EE5D146E38
:10230000EE50EF59156EEE50F059166EEE50F15931
:10231000176EE834000E171809E6D880010E145421
:10232000000E1554000E1654000E17540FE2EEC0A6
:10233000CEF1EFC0CFF1F0C0D0F1F1C0D1F1020E7B
:102340000101CE5F000ECF5BD05BD15B0101CE51AE
:102350000001EE270101CF510001EF230101D0510F
:102360000001F0230101D1510001F123020E0B6E97
:102370000C6A0D6A0E6AEEC006F0EFC007F0F0C0FE
:1023800008F0F1C009F0C7EC22F006C0EEF007C07B
:10239000EFF008C0F0F009C0F1F0EEC0F3FFEFC0BD
:0A23A000F4FFE552E7CFD9FF120069
:0623AA0011EC17F0FB0E20
:1023B000DBCFF3FFDB06F35000090AE05FEC17F018
:1023C000FA0ECAEC17F0F3E1151CF1E1010E01D091
:1023D000000E40EF17F011EC17F03B0EE12402E382
:1023E000E168E652E16E010EDB6A020EDB6AF90E6D
:1023F000DBCFF6FFFA0EDBCFF7FFFB0EDBCFF8FFEC
:102400000800F550DF6EDF5002E164EF16F0250E94
:10241000DF5C02E057EF16F0030EDB6A040EDB6AA6
:10242000050EDB6A060EDB6A070EDB6A79EC16F036
:102430002D0EDF5C0CE02B0EDF5C09E0200EDF5C74
:1024400006E0230EDF5C03E0300EDF5C1AE1DF50B4
:10245000300A14E0130A0FE0030A0AE00B0A05E051
:10246000060AE4E1030EDB80E1D7030EDB82DED750
:10247000030EDB84DBD7030EDB86D8D7030EDB88A5
:10248000D5D72A0EDF5C1BE175EC16F0C3EC16F015
:1024900010E0030EDB8008680968130EDBCF0DF037
:1024A000140EDBCF0EF0FBEC22F0040E06C0DBFFB7
:1024B00003D0130EACEC16F079EC16F00BD0090E2D
:1024C000DB6A1AEC17F003E08EEC17F0FAD7090E6E
:1024D000ACEC16F0030EDBB0DB982E0EDF5C1BE1DC
:1024E00079EC16F02A0EDF5C0BE175EC16F0C3EC0C
:1024F00016F003E1130EFEEC16F079EC16F00BD09B
:10250000090EDB6A1AEC17F003E08EEC17F0FAD72D
:10251000090EFEEC16F0680EDF5C07E179EC16F0B0
:10252000680EDF5C1DE1030E18D0740EDF5C17E04F
:102530007A0EDF5C14E0480EDF5C06E0540EDF5CD0
:1025400003E05A0EDF5C02E1020E07D06C0EDF5C86
:1025500003E06A0EDF5C04E1010E51EC17F0C9DB09
:10256000DF506E0A01E17FD31E0A01E192D1200AF9
:1025700001E18FD13F0A01E149D11A0A01E146D1B7
:102580000D0A01E143D1200A01E140D13A0A01E1FB
:102590003DD1200A01E13AD1260A01E135D10D0AE7
:1025A00001E132D11A0A01E1D9D0200A4AE0300A09
:1025B0001FE0460A0EE0250A01E083D3D950F90F47
:1025C000E96EFF0EDA20EA6E010EEE5E000EEE5AA4
:1025D000EE5A5FEC17F0250EE66E95DB03E1151C55
:1025E00001E169D35BEC17F001E26BD3DB2A69D31D
:1025F000080EDB6A040EDB50010806E2040EDB0461
:1026000023EC17F0DB508BDB080EDB5009E0030EE8
:10261000DB50010B05E172DB01E04DD3080EDB6AF4
:1026200064DBEFCFDFFFD3EC17F003E1151C01E112
:1026300042D35BEC17F001E3DB2A60DB01E141D31D
:102640003AD3070EDB5002080FE19FEC17F0030EA0
:1026500066EC17F00E0EEECFDBFF0F0EEECFDBFFBA
:10266000100EEECFDBFF20D0F70EDBCF17F0F80E09
:10267000DBCF18F0020E175E000E185AF70E17C0C7
:10268000DBFFF80E18C0DBFF17C0E9FF18C0EAFF38
:1026900056EC17F0166A0E0E14C0DBFF0F0E15C0B5
:1026A000DBFF100E16C0DBFF0E0EDBCFE6FF0F0EBA
:1026B000DBCFE6FF100EDBCFE6FF73EC24F0E55234
:1026C000E552E552130E07C0DBFF140E08C0DBFF16
:1026D000060EDB5005E0130E9AEC17F001E26ADB00
:1026E000BEEC17F002E2130E37DB81EC17F006E0C8
:1026F000040E9AEC17F002E2050E2EDB030EDBB09F
:1027000005D0FCDA01E0D7D2080EDB6A090EDB6ADD
:102710000E0EDBCFF6FF0F0EDBCFF7FF100EDBCF79
:10272000F8FF0800F550DF6EDF5014E0C4EC17F03E
:1027300011E2D3EC17F003E1151C01E1BCD2BBDBC5
:1027400001E3DB2A090EDB2AD9500E0FE96E000ED9
:10275000CBDBE7D7D3DA01E1B4D2ADD2C6DA110EC2
:10276000EECFDBFF120EEDCFDBFF110EDBCFE6FF6E
:10277000120EDBCFE6FF65EC24F0E552E552130EB6
:10278000F3CFDBFF140EF4CFDBFF060EDB5004E0CB
:10279000130ED0DB01E20EDBBEEC17F002E2130EEB
:1027A000DBDAAFDB05E0040EC5DB02E2050ED4DAAE
:1027B000030EDBB005D0A2DA01E07DD2080EDB6AA1
:1027C000090EDB6A110EDBCFE9FF120EDBCFEAFF49
:1027D000EFCFDFFFDF5014E0D7DB12E2E4DB03E1F1
:1027E000151C01E168D267DB01E3DB2A090EDB2A55
:1027F000110EDB2ADBCFE9FF120EE8E3DB2AE6D776
:102800007DDA01E15ED257D2030EDB8E070EDB04C8
:1028100010E195DB040E5ADB0A0EEECFDBFF0B0E48
:10282000EECFDBFF0C0EEECFDBFF0D0EEECFDBFFAE
:102830006CD0070EDB5003082CE1030EDBAE0DD08D
:10284000B2DA020E76DAEFCF14F0156A166A176A5A
:1028500014AE39D01568166835D0F70EDBCF15F0F9
:10286000F80EDBCF16F0020E155E000E165AF70EAC
:1028700015C0DBFFF80E16C0DBFF15C0E9FF16C060
:10288000EAFFEFCF14F00A0E14C0DBFF0B0EDB6A79
:1028900038D0070EDB50020809E1030EDBAE04D08E
:1028A00059DB16AE10D00ED055DB0DD0030EDBAECB
:1028B00012D079DA020E3DDAF9DA166A176A15AE25
:1028C00002D016681768E2DA0C0E16C0DBFF0D0E98
:1028D00017C0DBFF1AD0F70EDBCF16F0F80EDBCFF8
:1028E00017F0020E165E000E175AF70E16C0DBFF29
:1028F000F80E17C0DBFF16C0E9FF17C0EAFFD6DAF3
:10290000C5DA0C0EDB6A0D0EDB6A060EDB5005E144
:10291000010EF36E050EF3CFDBFF150EDB6A160E0C
:10292000DB6AD950370F146E000EDA20156E390E9F
:1029300014C0DBFF3A0E15C0DBFF380EDB6A080E51
:10294000DB6A0A0EAEDADF50780A12E0200A10E0E5
:10295000280A0CE0200A0AE03F0A06E00D0A02E01D
:10296000200A08E1020E05D0080E03D0080EDF266B
:10297000100E97DA030EDBBE02D0DB92DB94DB5045
:10298000800B24E08ADAD890030EEB50000A08E6A8
:10299000000EEE5C000EEE58000EEE58000EEE58E3
:1029A00015E213DA0B680C680D680E682DEC24F044
:1029B0000A0E02C0DBFF0B0E03C0DBFF0C0E04C0CF
:1029C000DBFF0D0E05C0DBFF2D0E08D0030EDBA2D2
:1029D00002D02B0E03D0DBA408D0200EF36E170E0E
:1029E000F3CFDBFF150EDB2A02D0170EDB6A050ED4
:1029F000DB5003E1B7D901E189D0EC0E146E4A0E29
:102A0000156E000E166E070EDBCF17F0186A196AE6
:102A10001A6A17C00BF018C00CF019C00DF01AC0DC
:102A20000EF0D3D9CAEC24F014500224F36E1550E2
:102A30000320F46E16500420F86EF4CFF7FFF3CFA6
:102A4000F6FF0800090EF5CFDBFF580EDF5C0FE143
:102A5000610EF36E090E7BD90AE3200E146E090E87
:102A6000DBCFE7FF1450E75E090EE7CFDBFF070E71
:102A7000DBCF14F0156A166A176A0FDA14C00BF070
:102A800015C00CF016C00DF017C00EF0EECF06F01A
:102A9000EECF07F0EECF08F0EFCF09F0CAEC24F04C
:102AA00009C0EDFF08C0EDFF07C0EDFF06C0EFFF56
:102AB000390EDBCFE9FFDB063A0EDBCFEAFF01E29E
:102AC000DB06090EDBCFEFFF150EDB2A4BD995E1B4
:102AD000030EDBA61DD06F0EDF5C06E1C1D918E343
:102AE000150EDB285BDA14D0780EDF5C09E0580E97
:102AF000DF5C06E0620EDF5C03E0420EDF5C08E1B3
:102B0000020EF36E160EF3CFDBFF02D0150EDB6A5A
:102B1000030EDB50100B0EE0040EDBCF14F0050E9D
:102B2000DB50D880145406E2060EDB5003E1040E9D
:102B3000DB5034DA95D90AE2050EDBCFE7FF150E3C
:102B4000DB50E75E050EE7CFDBFF02D0050EDB6A48
:102B5000040EDBCF14F0160E45D9D880145414E2BD
:102B6000160EDBCFE6FF150EDBCFE6FF040EDBCF44
:102B7000E6FF050EDB50E552E75CE552D880E754EE
:102B8000E552D880E7545FD9030EDB50010B0BE10F
:102B9000080EDB5008E0B2D801E08DD0080EDB5003
:102BA000BED8080EDB6A170EDB5007E088D9170E77
:102BB000F1D903E1151C01E17ED0160EDB5016E0C1
:102BC0007ED9300EE66E9FD802E1151C74E077D9ED
:102BD000DFCFE6FFEBEC23F0E552E552E552F4CF10
:102BE00015F00001F31C02E1151C65E0050EDBCFBA
:102BF00014F0160EDB50D880145409E2050EDBCF1A
:102C0000E7FF160EDB50E75E050EE7CFDBFF300E69
:102C1000E66E050ECBD94FE1390EDB2ADBCFE9FF9B
:102C20003A0E01E3DB2ADBCFEAFF090EEFCFDBFF31
:102C3000DB500EE044D9090EADD902E1151C3BE092
:102C4000390EDB2ADBCFE9FF3A0EEDE3DB2AEBD7C7
:102C500055D831E1160EDBCFE6FF080EC3D8E5529A
:102C6000E7245DD82ED0070EDB50030A1CE0010AD2
:102C700014E0030A07E07BD9DBCFEEFF020EDBCFC7
:102C8000EDFF1FD0F5D8196A17AE02D01868196881
:102C90002CD8BCD819C0EEFF14D0EAD817BE1868DB
:102CA00024D8B4D80ED063D9DBCFEFFF0AD07BD9BC
:102CB00005E1151C03E1F368F46810D0FCD801E3CA
:102CC000DB2A79D900EF12F0010EDBCF14F0020EEF
:102CD000DBCF15F014C0F3FF15C0F4FF3B0EE15C31
:102CE00002E2E16AE552E16ECBD029D9020E66EF2D
:102CF00017F061D90800F550DF6E1200200EE66E65
:102D0000080ED6EF17F0EBEC23F0E552E552E55252
:102D1000F3CF14F0F4CF15F00001F31C1200146E81
:102D2000156AD950010F4DD91450EE261550ED22D9
:102D30001200185E000E195AF70E18C0DBFFF80ECD
:102D400019C0DBFF18C0E9FF19C0EAFF1200DBCF92
:102D5000F4FFF350F45C1200DB50E76E040EE7CF93
:102D6000DBFF12000A0EDBCF14F00B0EDBCF15F0E9
:102D70000C0EDBCF16F00D0EDBCF17F01450151034
:102D8000161017101200130EEECFDBFF140EEDCF4E
:102D9000DBFF130EDBCF14F0140EDBCF15F00001B8
:102DA000800E15141200F70EDBCF18F0F80EDBCFF3
:102DB00019F01200050EDB50E66ED950130F01D941
:102DC000E552E750EE6EED6A12000A0EDBCF06F018
:102DD0000B0EDBCF07F00C0EDBCF08F00D0EDBCFB8
:102DE00009F01200DBCFE6FF150EDBCFE6FF050E84
:102DF000DB50E552E724E552E7241200DB50CED841
:102E0000010EF36E060EF3CFDBFF1200EE50EFCF94
:102E1000EAFFE96E16C0EEFF17C0EEFF18C0EEFF26
:102E20001200D9CFE6FFDACFE6FFE1CFD9FFE2CF3C
:102E3000DAFF1200DFCFE6FFE66A21EC25F0E5526B
:102E4000E552F3501200E76E080EE7CFDBFF1200E9
:102E5000EECF14F0EECF15F0EFCF16F0176A120098
:102E6000050EDBCF14F0150EDB50D8801454120081
:102E7000010EDBCF16F0020EDBCF17F0186A12003E
:102E8000E552E5CFDAFFE7CFD9FF12000A0E14C0F2
:102E9000DBFF0B0E15C0DBFF1200D9500A0FE1EF6C
:102EA00017F0F36E070EF3CFDBFF1200EECF14F036
:102EB000EFCF15F01200010EDB2A020E1200FC0EFD
:102EC000DBCFE6FFFD0EDBCFE6FF1200145E000E47
:102ED000155AF70E14C0DBFFF80E15C0DBFF14C047
:102EE000E9FF15C0EAFF1200DA20EA6EEF2AEECF02
:102EF000F6FF000EEF22EECFF7FFEF22EECFF8FF46
:102F00001200040EDBCFE6FF130EDB50E552E75C48
:102F10009ADFDB5004DF060EDB501200090EDB5097
:102F20000A0DF350DF24D00FE76E090EE7CFDBFF69
:102F300079EF16F0DB50F36E050EA7EF16F0F70EE3
:102F4000DBCF14F0F80EDBCF15F01200DFCFE6FF79
:102F500083EF16F028DF030EECDE28EF17F0D5EC38
:102F600011F0E552E552E552E55200091200BDDECE
:102F7000EE50EFCFEAFFE96E010E1200130EDB50A8
:102F8000F36E040EA7EF16F0040EDB50F36E090E7D
:102F9000A7EF16F0DBCFE6FF83EF16F0E76E050E26
:102FA000E7CFDBFF12008BDFA6EF17F0DBCFE6FFEA
:102FB00086DFAFEF17F0D950F90FE96EFF0E74EF0F
:0C2FC00017F0E96E000EDA20EA6E120035
:042FCC009D9A9E9A92
:102FD000040EAC6E800EAB6EB886B06A440EAF6E57
:102FE000240EAC6E900EAB6E0101F76B200EF75DF8
:102FF00009E2F751EA6AD40FE96E010EEA22EF6A9C
:10300000F72BF4D7F86BF8C1F7F1FA6B9F9A9E9AF9
:103010009D8A1200D9CFE6FFE1CFD9FFACA2FED73F
:10302000FE0EDB50AD6EE552E7CFD9FF1200D9CFCF
:10303000E6FFE1CFD9FFFD0EDBCFE9FFFE0EDBCFD0
:10304000EAFFEF500EE0FD0EDBCFE9FFDB2AFE0EBC
:10305000DBCFEAFF01E3DB2AEF50E66EDBDFE55270
:10306000EAD7E552E7CFD9FF1200D9CFE6FFE1CF8B
:10307000D9FFFC0EDBCFF6FFFD0EDBCFF7FFFE0E18
:10308000DBCFF8FF0800F55016E0D950FC0FE96ED1
:10309000FF0EDA20EA6EEFCFF6FFEE2AEFCFF7FF52
:1030A000000EEE22EFCFF8FFEE220800F550E66E9C
:1030B000B1DFE552DED7E552E7CFD9FF1200D9CF15
:1030C000E6FFE1CFD9FFE6520101F851EA6AD40FD9
:1030D000E96E010EEA22EFCFDFFF200E146EF82B0F
:1030E000F851D880145401E3F86BDF50E552E552F3
:1030F000E7CFD9FF12000101F751F85D01E1000CA3
:10310000010CD9CFE6FFE1CFD9FF200EE1261B0E3F
:10311000DB6A0101F56BF66B0101640ED880F55591
:10312000000EF65501E234D0E6DF000901E1F4D7E4
:10313000C6DFE76E180EE7CFDBFF180EDBCF14F00B
:10314000200EE76E1418E8AE02D0E73402D0E75044
:10315000145C01E21DD0170E146E1B0EDB50145CC4
:1031600001E216D0D9CF14F0DACF15F01B0EDBCF69
:10317000F3FFDB2AF3500F011424E96E000E152033
:10318000EA6E180EDBCFEFFF0101F56BF66BC4D7CB
:10319000D9CF14F0DACF15F01B0EDB500F01142439
:1031A000E96E000E1520EA6EEF6A1B0EDB5001E19E
:1031B000E9D0DF50520A01E1DED0040A01E1D9D0A2
:1031C000140A01E1C9D00F0A01E18BD0020A6CE0B8
:1031D000030A4DE0050A31E03A0A2EE0200A01E038
:1031E000CCD0640E0101CC6FCD6B010EDB50310AE7
:1031F00011E0010A01E01BD0030EDB50310805E1AC
:10320000CBD80101AA81899E04D00101AA910101B4
:10321000AB6B0DD0030EDB50310802E1010E01D083
:10322000000E0101E8B0AA83E8A0AA9300D0010E25
:1032300001010D6F0E6BA6D0A5D0010EDB50440826
:103240000EE1300EF36E030EDBCFF4FFF350F45CAF
:1032500006E3390E146E030EDB50145C01E292D0CB
:10326000030EDB50D00F0101AB6F96D88BD0010E4F
:10327000DB50D00FE76E190EE7CFDBFF030EDB50FC
:10328000D00FE76E1A0EE7CFDBFF0101AB510BE168
:103290001A0EDBCFE6FF190EDBCFE6FFD1EC0DF007
:1032A000E552E55200D06ED0010EDB50D00FE76E34
:1032B000190EE7CFDBFF030EDB50D00FE76E1A0EBF
:1032C000E7CFDBFF0101AB510BE11A0EDBCFE6FFCD
:1032D000190EDBCFE6FF1DEC0DF0E552E55200D0F4
:1032E00051D0030EE66ED950020FE66E000EDA20C2
:1032F000E66EDCDAE552E552E5521C0EF3CFDBFF59
:103300001D0EF4CFDBFF030EE66ED950060FE66EFE
:10331000000EDA20E66ECADAE552E552E5521E0EDC
:10332000F3CFDBFF1F0EF4CFDBFF0101AB5113E145
:103330001E0EDBCFE6FF1F0EDBCFE6FF1C0EDBCF42
:10334000E6FF1D0EDBCFE6FF0DEC0AF0E552E5527D
:10335000E552E55200D016D0070E01010D6F0E6B3D
:10336000D9CFE6FFDACFE6FF31EC1FF0E552E552A8
:1033700009D068D807D0FF0005D0150EE66E4ADEEA
:10338000E55200D0200EE15C02E2E16AE552E16E16
:10339000E552E7CFD9FF1200D9CFE6FFE1CFD9FF41
:1033A000E6527B0E146E490E156E166A14C0E6FFC7
:1033B000E66E16C0E6FF59DEE552E552E552010120
:1033C000AB5111E1DF6A0A0EDF5C0DE2DF50EA6A01
:1033D000A00FE96E010EEA22EF50300FE66E1ADE02
:1033E000E552DF2AF0D7720E146E490E156E166A7A
:1033F00014C0E6FFE66E16C0E6FF37DEE552E55282
:10340000E552690E146E490E156E166A14C0E6FF79
:10341000E66E16C0E6FF29DEE552E552E552660E7D
:10342000146E490E156E166A14C0E6FFE66E16C0DD
:10343000E6FF1BDEE552E552E552E552E552E7CFE5
:10344000D9FF1200D9CFE6FFE1CFD9FF200EE12648
:1034500062EC1EF0610E146E490E156E166A14C0F1
:10346000E6FFE66E16C0E6FF00DEE552E552E552E5
:10347000200EE66ECFDDE552580E146E490E156E25
:10348000166A14C0E6FFE66E16C0E6FFEEDDE552F2
:10349000E552E55204CFE6FF05CFE6FF02CFE6FF97
:1034A00003CFE6FF00CFE6FF01CFE6FF430E146E29
:1034B000490E156E166A14C0E6FFE66E16C0E6FFEA
:1034C000D9CFE6FFDACFE6FF46EC23F0176E0B0EFE
:1034D000E15E1750D9CFE6FFDACFE6FFA8DDE5526F
:1034E000E552200EE15C02E2E16AE552E16EE5524E
:1034F000E7CFD9FF1200D9CFE6FFE1CFD9FF160EF3
:10350000E1260101AB5101E07DD0020EDB6A0A0E1B
:10351000F36E020EDBCFF4FFF350F45C62E2020EB6
:10352000DB50EA6AA00FE96E010EEA22EF500AE0D2
:10353000020EDB50EA6AA00FE96E010EEA22EF509C
:1035400002080FE1020EDBCFE6FF89EC0DF0E55239
:10355000000903E1146A156A33D01468030E156E6E
:103560002FD0020EDB50EA6AA00FE96E010EEA22AC
:10357000EF50060817E1020EEA6ADB34FE0BEA366A
:10358000E96E0F0EE926010EEA22EECFE6FFEFCF3D
:10359000E6FFAEEC10F0E552E552F3CF14F0F4CFB5
:1035A00015F00ED0020EEA6ADB34FE0BEA36E96E45
:1035B0000F0EE926010EEA22EECF14F0EFCF15F040
:1035C000020EEA6ADB34FE0BEA36E96EAC0EE9263F
:1035D000010EEA2214C0EEFF15C0EDFF020EDB2A39
:1035E00096D7E66A01EC0EF0E552E76E140EE7CFCF
:1035F000DBFF010EE66E01EC0EF0E552E76E150EF4
:10360000E7CFDBFF020EDB6A0A0EF36E020EDBCFA2
:10361000F4FFF350F45C34E2020EEA6ADB34FE0B92
:10362000EA36E96EAC0EE926010EEA22EECFE6FF9D
:10363000EFCFE6FF020EDB28E66EE66A380E146E68
:10364000490E156E166A14C0E6FFE66E16C0E6FF58
:10365000D950030FE66E000EDA20E66E46EC23F03A
:10366000176E090EE15E1750D950030FE66E000E7B
:10367000DA20E66EDCDCE552E552020EDB2AC4D726
:10368000020EDB6AD950030F146E020EDBCFF3FF7C
:10369000DB2AF3500F011424E96E000EDA20EA6EE3
:1036A0004C0EEF6ED950030F146E020EDBCFF3FFFA
:1036B000DB2AF3501424E96E000EDA20EA6E450E80
:1036C000EF6ED950030F146E020EDBCFF3FFDB2A2F
:1036D000F3501424E96E000EDA20EA6E440EEF6E09
:1036E000D950030F146E020EDBCFF3FFDB2AF35029
:1036F0001424E96E000EDA20EA6E3D0EEF6E140E11
:10370000DB50300FE66ED950030F146E020EDBCF84
:10371000F3FFDB2AF3501424E96E000EDA20EA6E80
:10372000E552E750EF6E150EDB50300FE66ED950C4
:10373000030F146E020EDBCFF3FFDB2AF3501424C9
:10374000E96E000EDA20EA6EE552E750EF6ED950CE
:10375000030F146EDACF15F0020EDB501424E96E5D
:10376000000EDA20EA6EEF6AD950030FE66E000E03
:10377000DA20E66E5CDCE552E552660E146E490E08
:10378000156E166A14C0E6FFE66E16C0E6FF6DDC25
:10379000E552E552E552160EE15C02E2E16AE552BD
:1037A000E16EE552E7CFD9FF1200D9CFE6FFE1CFB6
:1037B000D9FF070EE126030EE66E5AEC21F0E55222
:1037C000440EE66E27DCE5523A0EE66E23DCE55247
:1037D000060EDB6A030EF36E060EDBCFF4FFF3502A
:1037E000F45C4BE2060EEA6ADB34FE0BEA36E96E65
:1037F000BE0EE926000EEA22EECF14F0EFCF15F050
:103800000A0E0D6E0E6A14C008F015C009F00BEC1C
:1038100025F008C014F009C015F008C0E6FF09C083
:10382000E6FF330E166E490E176E186A16C0E6FFD5
:10383000E66E18C0E6FFD9CFE6FFDACFE6FF46EC2A
:1038400023F0196E070EE15E1950D9CFE6FFDACFEB
:10385000E6FF17EC18F0E552E552020EF36E060E85
:10386000DBCFF4FFF350F45C05E22C0EE66E0AECBD
:1038700018F0E552060EDB2AADD7660E146E490E1F
:10388000156E166A14C0E6FFE66E16C0E6FF35EC4C
:1038900018F0E552E552E552070EE15C02E2E16AFA
:1038A000E552E16EE552E7CFD9FF1200D9CFE6FF2E
:1038B000E1CFD9FF060EE126010EF36E040EF3CF21
:1038C000DBFF050EDB6A020EDB6A030EDB6ADF6AD2
:1038D000FC0EDB50DF5C43E2FD0EDBCFE9FFDB2AB1
:1038E000FE0EDBCFEAFF01E3DB2A010EEFCFDBFFA9
:1038F000DB5035E0010EDB502D0805E1040EDB68DE
:10390000050EDB682AD0300EF36E010EDBCFF4FF1C
:10391000F350F45C22E3390E146E010EDB50145C9C
:103920001CE3D950020FE96EDACFEAFF0A0EEC026F
:10393000F3CFEDFFEF02F3CFEEFFF450ED26010ED3
:10394000DB50D00F146E156AD950020FE96EDACF32
:10395000EAFF1450EE261550ED22DF2AB9D7040EE7
:10396000DBCF14F0050EDBCF15F0D950020FE96E56
:10397000DACFEAFF14C00DF015C00EF0EECF08F05C
:10398000EDCF09F028EC23F006C0EEFF07C0EDFFF5
:10399000020EDBCF14F0030EDBCF15F014C0F3FFE3
:1039A00015C0F4FF060EE15C02E2E16AE552E16E49
:1039B000E552E7CFD9FF1200D9CFE6FFE1CFD9FF1B
:1039C000060EE126DE6ADE6ADE6ADD6ADD52DD525F
:1039D000040EDB6AFC0EDB50F36E040EDBCFF4FF4B
:1039E000F350F45C57E2FD0EDBCFE9FFDB2AFE0E5D
:1039F000DBCFEAFF01E3DB2A050EEFCFDBFF300E62
:103A0000F36E050EDBCFF4FFF350F45C43E3390EA5
:103A1000146E050EDB50145C3DE3300E146E050E83
:103A2000DBCFE7FF1450E75E050EE7CFDBFFD9CF12
:103A3000E9FFDACFEAFF0A0E0B6E0C6A0D6A0E6A16
:103A4000EECF06F0EECF07F0EECF08F0EFCF09F0A3
:103A50002DEC24F005C0EDFF04C0EDFF03C0EDFF29
:103A600002C0EFFF050EDBCF14F0156A166A176A65
:103A700014AE03D01568166817681450DE2615506A
:103A8000DE221650DE221750DD22DD52DD52040EFA
:103A9000DB2AA0D7DECF06F0DECF07F0DECF08F0BE
:103AA000DDCF09F0DD52DD52060EE15C02E2E16A93
:103AB000E552E16EE552E7CFD9FF1200D9CFE6FF1C
:103AC000E1CFD9FF040EE126DE6ADD6A020EDB6A71
:103AD000FC0EDB50F36E020EDBCFF4FFF350F45C10
:103AE0004FE2FD0EDBCFE9FFDB2AFE0EDBCFEAFF64
:103AF00001E3DB2A030EEFCFDBFF300E146E030E63
:103B0000DB50D880145408E3030EDB50390804E37B
:103B1000030EDB50D00F1ED0410E146E030EDB508F
:103B2000D880145408E3030EDB50460804E3030E68
:103B3000DB50BF0F0ED0610E146E030EDB50D88029
:103B400014541EE3030EDB5066081AE3030EDB5029
:103B50009F0F0A0FE76E030EE7CFDBFFD9CFE9FF18
:103B6000DACFEAFF040ED890EE36ED36E806FBE138
:103B7000030EDB50DE26000EDD22020EDB2AA8D764
:103B8000DECF14F0DDCF15F014C0F3FF15C0F4FF45
:103B9000040EE15C02E2E16AE552E16EE552E7CF34
:103BA000D9FF1200D9CFE6FFE1CFD9FF300EF36E77
:103BB000FE0EDBCFF4FFF350F45C08E3390E146E15
:103BC000FE0EDB50145C02E3000E01D0010E000972
:103BD00002E0000E01D0010EE552E7CFD9FF12003E
:103BE000D9CFE6FFE1CFD9FF030EE126FD0EDBCFF3
:103BF00008F0FE0EDBCF09F0DE5208C0DEFF09C080
:103C0000DDFFDD52020EDB50AA6E010EDB50A96E05
:103C1000A69EA69CA680A850DF6EDF50146E030EF1
:103C2000E15C02E2E16AE552E16E1450E552E7CF51
:103C3000D9FF1200D9CFE6FFE1CFD9FF040EE1266C
:103C4000FD0EDBCF08F0FE0EDBCF09F0020E08C040
:103C5000DBFF030E09C0DBFFDB50AA6E020EDB5058
:103C6000A96EFC0EDB50A86EA69EA69CA684F29EB2
:103C7000550EA76EAA0EA76EA682DE6ADD6AA6A200
:103C800015D0DFCF14F0DF2A010EDBCF15F001E3F2
:103C9000DB2A166A1634000E161807E6D880E80EDE
:103CA0001454FD0E1554000E1654E9E2F28EA6943B
:103CB000040EE15C02E2E16AE552E16EE552E7CF13
:103CC000D9FF1200D9CFE6FFE1CFD9FF020EE126DE
:103CD000000EE66EE66A84DFE552E552DF6E010E05
:103CE000E66EE66A7DDFE552E552E76E010EE7CF4C
:103CF000DBFFDECF14F0DDCF15F0F00ED8801454CA
:103D0000000E155402E2DE6ADD6ADECF00FFDDCF71
:103D100001FF020EE66EE66A63DFE552E552DF6EF2
:103D2000030EE66EE66A5CDFE552E552E76E010ED1
:103D3000E7CFDBFFDECF14F0DDCF15F0F00ED8803B
:103D40001454000E155402E2DE6ADD6ADECF02FF73
:103D5000DDCF03FF040EE66EE66A42DFE552E55270
:103D6000DF6E050EE66EE66A3BDFE552E552E76E72
:103D7000010EE7CFDBFFDECF14F0DDCF15F0140E20
:103D8000D8801454000E155403E20A0EDE6EDD6A6C
:103D9000DECF04FFDDCF05FF020EE15C02E2E16A47
:103DA000E552E16EE552E7CFD9FF1200D9CFE6FF29
:103DB000E1CFD9FF020EE12600CFDEFF01CFDDFF0C
:103DC000DFCFE6FF000EE66EE66A34DFE552E5522D
:103DD000E552010EDBCFE6FFE66EE66A2BDFE55229
:103DE000E552E55202CFDEFF03CFDDFFDFCFE6FF76
:103DF000020EE66EE66A1EDFE552E552E552010E5E
:103E0000DBCFE6FF030EE66EE66A14DFE552E5520D
:103E1000E55204CFDEFF05CFDDFFDFCFE6FF040E66
:103E2000E66EE66A07DFE552E552E552010EDBCFAA
:103E3000E6FF050EE66EE66AFDDEE552E552E55266
:103E4000320EE66EE66AE3EC09F0E552E552020E48
:103E5000E15C02E2E16AE552E16EE552E7CFD9FFAB
:103E60001200D9CFE6FFE1CFD9FF1E0EE126020EE8
:103E7000E76EFD0EDBCFE9FFFE0EDBCFEAFFE7507A
:103E8000E926000EEA22EF50E66ED2EC1DF0E55274
:103E9000000901E1DCD0060EE76EFD0EDBCFE9FF85
:103EA000FE0EDBCFEAFFE750E926000EEA22EF50D4
:103EB000E66ED2EC1DF0E552000901E1C8D0030E18
:103EC000E66E020EE76EFD0EDBCF14F0FE0EDBCFCA
:103ED00015F0E7501426000E152214C0E6FF15C099
:103EE000E6FF56EC1CF0E552E552E552F3CFDEFF5B
:103EF000F4CFDDFFDECF14F0DDCF15F0F00ED8806B
:103F00001454000E155403E2F00EDE6EDD6A030E4B
:103F1000E66E060EE76EFD0EDBCF14F0FE0EDBCF75
:103F200015F0E7501426000E152214C0E6FF15C048
:103F3000E6FF56EC1CF0E552E552E552020EF3CFD7
:103F4000DBFF030EF4CFDBFF020EDBCF14F0030E1A
:103F5000DBCF15F0F00ED8801454000E155407E294
:103F6000F00EF36E020EF3CFDBFF030EDB6ADECF43
:103F700000FFDDCF01FF020EDBCF02FF030EDBCF20
:103F800003FF0A0EE76EFD0EDBCFE9FFFE0EDBCF6F
:103F9000EAFFE750E926000EEA22EF50E66ED2EC87
:103FA0001DF0E552000952E0030EE66E0A0EE76EC0
:103FB000FD0EDBCF14F0FE0EDBCF15F0E75014261C
:103FC000000E152214C0E6FF15C0E6FF56EC1CF0EB
:103FD000E552E552E552040EF3CFDBFF050EF4CFB8
:103FE000DBFFD950040FE96EDACFEAFFFF0EEE18BF
:103FF00009E1ED5007E10A0EF36E040EF3CFDBFF8B
:10400000050EDB6A040EDBCF14F0050EDBCF15F0D6
:10401000010E145C000E15580CE3040EDBCF16F0F5
:10402000050EDBCF17F0140ED8801654000E17546F
:1040300007E2140EF36E040EF3CFDBFF050EDB6A0E
:10404000040EDBCF04FF050EDBCF05FFAFDE3ADE4B
:1040500004CFE6FF05CFE6FF02CFE6FF03CFE6FF82
:1040600000CFE6FF01CFE6FF810E146E490E156EFC
:10407000166A14C0E6FFE66E16C0E6FFD950060FBA
:10408000E66E000EDA20E66E46EC23F0176E0B0E9D
:10409000E15E1750D950060FE66E000EDA20E66E8C
:1040A00017EC18F0E552E5521E0EE15C02E2E16AFF
:0C40B000E552E16EE552E7CFD9FF1200A7
:0440BC00C76A110EB0
:1040C000C86E280EC66E400EC56E948694889F8674
:1040D0009E969D86A286A196A08606D8A00EE66E24
:1040E00051EC25F0E5521200D9CFE6FFE1CFD9FF20
:1040F000E652C950DF6EC69AC69CC69EC59CC59A3C
:104100000001846B82A80CD89E96A1960001806B5A
:10411000816B826BC68AE552E552E7CFD9FF120068
:10412000D9CFE6FFE1CFD9FFE6528A88C69ADF6A87
:10413000090EDF5C0EE29496020EE66E6BEC25F043
:10414000E5529486020EE66E6BEC25F0E552DF2A0E
:10415000EFD7E552E552E7CFD9FF12000001816B9E
:104160001F0EC51403E1C750040B07E00A0E146EBE
:104170008151145CF5E25EEF20F01200D9CFE6FF2A
:10418000E1CFD9FFE652DF6A020E0001815DFCE358
:10419000E5DFFE0EDBCF83F0FD0EDBCF85F0000107
:1041A000816B010E806FC580805112E0020E146E8B
:1041B0008151145C03E2800E8011826F8251F4E021
:1041C000C5847CDFDF2A050EDF5CE9E3000E02D048
:1041D000816B010EE552E552E7CFD9FF1200D9CF2E
:1041E000E6FFE1CFD9FF020E0001815DFCE3B6DFFF
:1041F000FE0EDB5001090001836FFD0EDBCF85F061
:10420000816B0B0E806FC58080510EE0020E146E24
:104210008151145C03E2800E8011826F8251F4E0C0
:10422000C5844CDF000E02D0816B010EE552E7CF52
:10423000D9FF1200D9CFE6FFE1CFD9FFE652DF6AFE
:10424000060EDF5C13E2DF50EA6AB80FE96E000E7B
:10425000EA22EF50E66EDF50EA6A860FE96E000E42
:10426000EA22E552E750EF6EDF2AEAD7060EE66E45
:10427000140EE66E83DFE552E552E552E552E7CFD4
:10428000D9FF1200D9CFE6FFE1CFD9FFE652DF6AAE
:10429000060EDF5C09E2DF50EA6AB80FE96E000E35
:1042A000EA22EF6ADF2AF4D7C5DFE552E552E7CF0D
:1042B000D9FF1200D9CFE6FFE1CFD9FF050EE126E5
:1042C000500EDF6EE70EF36E030EF3CFDBFFF36EDF
:1042D000040EF3CFDBFF060EE66EDFCFE6FF7FDFD7
:1042E000E552E552000907E1030EDBCF14F0040E9E
:1042F000DBCF15F064D0020EDB6A010EDB6A030E21
:10430000F36E010EDBCFF4FFF350F45C2DE2020EEE
:10431000DBCFF3FFDB2AF350EA6A860FE96E000E6B
:10432000EA22040EEFCFDBFF020EDBCFF3FFDB2A26
:10433000F350EA6A860FE96E000EEA22030EEFCF11
:10434000DBFF010EEA6ADB34FE0BEA36E96EBE0ED5
:10435000E926000EEA22030EDBCFEEFF040EDBCFD0
:10436000EDFF010EDB2ACBD7030EF36EFE0EDBCF83
:10437000F4FFF350F45C03E2FE0EDB5001D0000EBC
:10438000E76EFE0EE7CFDBFFFE0EEA6ADB34FE0BC4
:10439000EA36E96EBE0EE926000EEA22EECF14F0F0
:1043A000EFCF15F00A0E0D6E0E6A14C008F015C09E
:1043B00009F00BEC25F008C014F009C015F014C08A
:1043C000F3FF15C0F4FF050EE15C02E2E16AE5527D
:1043D000E16EE552E7CFD9FF1200D9CFE6FFE1CF7A
:1043E000D9FF080EE126030EF36EFE0EDBCFF4FFBD
:1043F000F350F45C03E2FE0EDB5001D0000EE76EDA
:10440000FE0EE7CFDBFFDB5005E1680E146E010EF8
:10441000156E03D0B40E146E156A060E14C0DBFFC1
:10442000070E15C0DBFF060EDBCF18F0070EDBCF43
:1044300019F0FC0EDB501824166EFD0EDB5019200F
:10444000176EFA0EDB50165C146EFB0EDB5017581D
:10445000156E14C008F0096E060EDBCF0DF0070EC6
:10446000DBCF0EF00BEC25F0020E04C0DBFF030ED9
:1044700005C0DBFF060EDBCF18F0070EDBCF19F00F
:10448000FC0EDB501824166EFD0EDB501920176E43
:10449000FA0EDB501624146EFB0EDB501720156E3F
:1044A00014C008F0096E060EDBCF0DF0070EDBCF4F
:1044B0000EF00BEC25F0040E04C0DBFF050E05C06A
:1044C000DBFFFE0EDBCFE6FFF5DEE552F3CFDEFFCE
:1044D000F4CFDDFF020EDBCF14F0030EDBCF15F0BF
:1044E000040EDBCF16F0050EDBCF17F01650145C70
:1044F000175015581FE2DECF14F0DDCF15F0020E75
:10450000DBCF16F0030EDBCF17F01650145C1750FC
:1045100015582EE3040EDBCF18F0050EDBCF19F093
:10452000DECF1AF0DDCF1BF01A50185C1B50195863
:1045300021E21ED0DECF14F0DDCF15F0020EDBCF6E
:1045400016F0030EDBCF17F01650145C17501558F9
:1045500011E2040EDBCF18F0050EDBCF19F0DECF31
:104560001AF0DDCF1BF01A50185C1B50195802E2EC
:10457000000E01D0010E146E080EE15C02E2E16A49
:0E458000E552E16E1450E552E7CFD9FF12006C
:02458E00006AC1
:10459000E86A0EAED4EF22F00B6C0C1E0D1E0E1E40
:1045A0000C220D220E22001E09AEDFEF22F0066C57
:1045B000071E081E091E072208220922001ECAEC37
:1045C00024F009BEF6EF22F000AE000C066C071EC8
:1045D000081E091EE86A072208220922026C031E2F
:1045E000041E051E032204220522000C00BEE6EF75
:1045F00022F00188FF0C09C013F008C012F0085027
:104600000D02F4CF07F0F3CF06F009500E02F4CFFD
:1046100009F0F3CF08F00D02F3500726F4500822FA
:10462000E86A092212500E02F3500726F4500822BD
:10463000E86A09220EAE21EF23F01250085E1350F3
:10464000095A13AE000C0D50085E0E50095A000CAA
:1046500008C012F008500D02F4CF07F0F3CF06F0B7
:1046600009500E02F4CF09F0F3CF08F00D02F35019
:104670000726F4500822E86A092212500E02F3506D
:0C4680000726F4500822E86A0922000C0A
:04468C00D9CFE6FF9D
:10469000DACFE6FFE1CFD9FFE2CFDAFFE652E6520A
:1046A000E652E652D950F90F146EFF0EDA20156E5D
:1046B000020E14C0DBFF030E15C0DBFF020EDBCFC2
:1046C000E6FF030EDBCFE6FFF90EDBCFE6FFFA0EC7
:1046D000DBCFE6FFFB0EDBCFE6FFD950FC0FE66E2B
:1046E000FF0EDA20E66EEBEC11F0146E070EE15CC3
:1046F00002E2E16AE552E16E1450F3CFDEFFF4CF3F
:10470000DDFFFC0EDBCFE9FFFD0EDBCFEAFFEF6A3A
:10471000DECF14F0DDCF15F014C0F3FF15C0F4FFA9
:10472000040EE15C02E2E16AE552E16EE552E5CF9A
:08473000DAFFE7CFD9FF120008
:084738001E0EF66E080EF76E6E
:10474000000EF86E00010900F550F76F0900F550F2
:10475000F86F03E1F76701D03DD00900F550F26F23
:104760000900F550F36F0900F550F46F09000900D6
:10477000F550E96E0900F550EA6E090009000900DC
:10478000F550F56F0900F550F66F09000900F6CFF6
:10479000F9F0F7CFFAF0F8CFFBF0F2C0F6FFF3C074
:1047A000F7FFF4C0F8FF0001F55302E1F65307E00C
:1047B0000900F550EE6EF507F8E2F607F9D7F9C0F3
:1047C000F6FFFAC0F7FFFBC0F8FF0001F707000E85
:0647D000F85BBFD71200E8
:0A47D600D9CFE6FFDACFE6FFE1CF0E
:1047E000D9FFE2CFDAFFFB0EDBCF14F0FC0EDBCFFC
:1047F00015F00001800E15141AE1FB0EDBCFE9FF66
:10480000FC0EDBCFEAFFEECFF3FFEDCFF4FFEE2A95
:10481000000EEF22F3CFE9FFF4CFEAFFFD0EDBCF6E
:10482000EFFFEF50156AF36E15C0F4FF10D0FB0ECA
:10483000DB50FE0806E1FD0EDBCFE6FF43EC25F082
:1048400005D0FD0EDBCFE6FF03EC04F0E552E552A8
:0A485000E5CFDAFFE7CFD9FF120031
:06485A0006500B02F3CF33
:1048600002F0F4CF03F00C02F3500326000EF42004
:10487000046E06500D02F3500426000EF420056E5F
:1048800006500E02F350052607500B02F350032684
:10489000F4500422000E052207500C02F3500426A7
:1048A000F450052207500D02F350052608500B0264
:1048B000F3500426F450052208500C02F35005264C
:0A48C00009500B02F3500526120008
:0648CA00FE0EE3CFE9FF42
:1048D000FF0EE3CFEAFFF36AF46AEE5203E0F34A15
:1048E000F42AFBD71200FF0EE3CFF8FFE552FF0ECC
:1048F000E3CFF7FFE552FF0EE3CFF6FFE552E66A9E
:10490000E66AE66A0900F55209E0FD0EE32A05E1D0
:10491000FE0EE32A02E1FF0EE32AF4D7FD0EE3CFF9
:1049200007F0FE0EE3CF08F0FF0EE3CF09F0120010
:104930000D0A002530337500434E25643D25303483
:10494000752C002020423A253033752C25303375E4
:104950002C253033750D0A005665722E352E3330F6
:1049600000544A3342000D0A002C5553455F444918
:1049700052002C5553455F4D434200434E696F3AF8
:1049800000423A253033752C253033752C253033D1
:04499000750D0A0097
:0C499400056A046A036A026A200EE76EDE
:1049A000D8900636073608360936023603360436FE
:1049B00005360B50025C0C5003580D5004580E5035
:1049C000055809E30B50025E0C50035A0D50045A6F
:0C49D0000E50055A062AE72EE4D712000C
:0449DC000001B20E16
:1049E000B86FBA6FBD6F1AEC21F0C80EE66EE66ABA
:1049F000E3EC09F0E552E5520001320EB86FBA6FF0
:104A0000BD6F1AEC21F0C80EE66EE66AE3EC09F021
:064A1000E552E552E3D778
:0A4A1600056A046A100EE76ED890DE
:104A200008360936043605360D50045C0E5005581C
:104A300005E30D50045E0E50055A082AE72EF0D704
:024A4000120062
:0E4A4200F36AF46AFF0EE124E96EFF0EE22033
:104A5000EA6EED6607D02F0EEF6404D03A0EEF60D9
:064A600001D0F32A120050
:0A4A6600800EF36E00EE00F00F0E5C
:104A700001D81200EA6002D0EE6AFCD7F350E96078
:064A80001200EE6AFCD7F3
:0A4A8600FF0EE350ACBA04D0AF6A93
:104A9000AB8EAC8A949CACA2FED7AD6EF36EF46A7A
:024AA000120002
:0E4AA200FF0EE3501E6E1B0E00D001D0200E42
:0E4AB000E76EE72EFED71E2EFAD700D01200BA
:024ABE001EEEEA
:104AC00000F02EEE00F0F86A018C9CEC23F023EC51
:064AD00009F0FDD7120001
:0A4AD600FF0EE350E84E120000004E
:0C4AE00000D000D000D0E82EFAD7120061
:044AEC003031323300
:0D4AF000343536373839616263646566001D
:034AFD0003070BA1
:104B00000F1323272B2F330100020004000800108D
:104B100000200040008000000100020004000800A6
:0B4B20001000200040008019FCFFFF87
:00000001FF
